:046800000C940038BC
:1068100084B7877F84BF88E10FB6F89480936000C7
:10682000109260000FBE90E080E80FB6F89480935D
:106830006100909361000FBEC1E0C5BF82E085BFDB
:10684000209A289A559A5D9A3F9A4798EDD6C09318
:106850006F0083E08093810081E06BD478945F9A2D
:10686000529A5A988FE39CE90197F1F700C0000013
:1068700080910001882369F081E091E00E94A03DB1
:106880000E94293D89B1881F8827881F80930001B5
:10689000EFCF8091800291E0980F909380028F3F1C
:1068A00059F75F9852985A988091E00081608093E0
:1068B000E00082E49CED90938C0280938B022CE0AC
:1068C00088E190E00FB6F894A895809360000FBE21
:1068D00020936000FFCF80EA2CC481E02AC481E0CD
:1068E00091E00E94833D882311F080E201C081E89D
:1068F00020C481E091E00C94443DCF93DF93EC0100
:1069000080E217D4CE0175D0C82F80E212D4109245
:1069100080028C2FDF91CF910895913039F0923021
:1069200051F080E090E020E030E009C082E190E0AA
:106930002CE032E004C080E290E02CEE31E0FA017D
:106940003183208308959F92AF92BF92CF92DF92BE
:10695000EF92FF920F931F93CF93DF93EC01962E4C
:10696000C8A0DF8CABA0BAA086E5C816D10418F485
:1069700000E010E015C080913C01807F856080932D
:106980003C0181E2809346011092470180E025C0DE
:10699000C8018C0D9D1D992039F0FAD10F5F1F4F52
:1069A0000A151B05A9F702C031D1F8CF6801E12C07
:1069B000F12C89E0CC0CDD1CEE1CFF1C8A95D1F774
:1069C0004C895D896E897F894C195D096E097F0943
:1069D0004C8B5D8B6E8B7F8B81E0DF91CF911F9114
:1069E0000F91FF90EF90DF90CF90BF90AF909F906E
:1069F0000895EF92FF920F931F93CF93DF93EC01D3
:106A00008B8D8F31A0F48D3108F0BFC08231E9F158
:106A100038F4882309F4B9C0833009F467C0BAC0D8
:106A20008A3109F490C08B3109F4A7C0B3C0883211
:106A300009F482C018F5853209F0ACC01092F1005B
:106A40001092F1001092F10085E58093F100109210
:106A5000F1001092F10082E08093F1001092F100B9
:106A60008091E8008E778093E8004C895D896E897B
:106A70007F8948505109610971097AC08A3209F445
:106A800059C08F3209F481C085C00F8D1E8D8C8D49
:106A9000837019F48D8D882341F080913C01807FB3
:106AA000856080933C0184E27CC078010532110549
:106AB00018F024E2E22EF12C40E050E0B7018EE124
:106AC00092E0EDD360E070E0C8018E199F09AAD36F
:106AD0008091E8008E778093E8004C895D896E890B
:106AE0007F894E195F096109710942C0EF8CFE2C44
:106AF00082E18E1510F492E1F92E0F2D10E040E0A6
:106B000050E0B8018AE391E0CAD38E2D90E060E0B6
:106B100070E0801B910B86D38091E8008E77809384
:106B2000E8004C895D896E897F894F195109610997
:106B300071091EC060E001C061E0CE0104DF88235E
:106B400009F43FC033C01092F1001092F10010928E
:106B5000F1001092F1008091E8008E778093E800B8
:106B60004C895D896E897F89445051096109710999
:106B70004C8B5D8B6E8B7F8B19C08F8D837091E0FA
:106B8000823009F490E0909300011C8A1D8A1E8ACD
:106B90001F8A0CC080913C01807F856080933C01FE
:106BA00080E280934601109247010BC080913C0126
:106BB000807F80933C01109246011092470181E052
:106BC00001C080E0DF91CF911F910F91FF90EF9076
:106BD0000895FB01F695E795E60FF0E0E80FF91F41
:106BE00060FF0EC080818F70942F9295907F892BCB
:106BF000808384E0569547958A95E1F7418308950F
:106C00004083842F807F852B818308954F925F92EC
:106C10006F927F928F929F92AF92BF92CF92DF92AC
:106C2000EF92FF920F931F93CF93DF93CDB7DEB711
:106C3000D2500FB6F894DEBF0FBECDBF8C0140E03E
:106C400050E060E072E0CE0101966C016FD380915C
:106C5000E8008B778093E8000330110508F481C0C9
:106C60000330110549F480EAF601ACE4B1E001908B
:106C70000D928A95E1F775C08091A6019091A701C8
:106C80008150904C880F991F880F991F081719077A
:106C900078F48091E6019091E7018150904C880F43
:106CA000991F880F991F0817190708F03FC059C08E
:106CB0009C012D5C3F4F2017310758F37801E81AEB
:106CC000F90AFE2CEE24FF0C57019EEFB91A46017B
:106CD0008E189F082701612C712CC7018F77992787
:106CE000892B19F4C301B20149D2F401EE0DFF1D45
:106CF000418150E0542F44278081482BC301B201C9
:106D000061D23701E2E06E0E711CC3018F779927C3
:106D1000892B31F4B7016E57710980E090E040D2C1
:106D20006A147B0409F4B5CF7301D4CF9C012F5FA3
:106D30003F4F20173107A8F0081B190B102F002711
:106D4000110FE12CF12CF60161916F01C701800F49
:106D5000911F67D2FFEFEF1AFF0AE11482E0F806F5
:106D600091F7DE5F0FB6F894DEBF0FBECDBFDF91A7
:106D7000CF911F910F91FF90EF90DF90CF90BF9038
:106D8000AF909F908F907F906F905F904F900895FD
:106D9000AF92BF92CF92DF92EF92FF920F931F9329
:106DA000CF93DF93CDB7DEB7C150D2400FB6F89482
:106DB000DEBF0FBECDBF8E010F5F1F4F20E032E060
:106DC000F801A901119241505040E1F7833091053B
:106DD000B8F4019710F58EE3E2E4F2E0D8010190F7
:106DE0000D928A95E1F785E5C150DE4F8883CF5F2C
:106DF000D1408AEAC050DE4F8883C050D24095C04F
:106E00008330910509F03CC080EAECE4F1E0D80160
:106E100001900D928A95E1F788C048EF5FE060E04D
:106E200070E0C801D6DE4FEF5FE061E070E0C801BE
:106E3000D0DE6091A6017091A70120E0CB01019600
:106E40007C012C3011F0AC0102C04FEF5FE0C801B3
:106E5000CF5FDD4F2883C150D240BBDECF5FDD4F17
:106E60002881C150D2402F5FB7012D3039F7609192
:106E7000E6017091E7014FEF5FE0C801AADE55C05F
:106E80002091A6013091A7012150304C220F331FD1
:106E9000220F331F8217930770F42091E60130917F
:106EA000E7012150304C220F331F220F331F82176E
:106EB0009307E8F43AC0A9014D5C5F4F48175907A2
:106EC00060F3FC01E21BF30B9F01322F2227330FEB
:106ED000AE014F5F5D4FD801201B310BF901EA0F66
:106EE000FB1FE491ED93A417B507C1F7D6CFA90115
:106EF0004F5F5F4F48175907C0F07C01E21AF30A51
:106F0000FE2CEE24FF0C5E01FFEFAF1AFDEFBF0A6F
:106F10006801E01AF10AC7018C0D9D1D81D1F601AF
:106F200081936F01EA15FB05B1F740E050E060E0A6
:106F300072E0C801B4D18091E8008E778093E800B8
:106F4000CF5FDD4F0FB6F894DEBF0FBECDBFDF9130
:106F5000CF911F910F91FF90EF90DF90CF90BF9056
:046F6000AF90089551
:1070000055C0000095C0000093C0000091C0000072
:107010008FC000008DC000008BC0000089C0000040
:1070200087C0000085C000001CC30000D2C3000060
:107030007FC000007DC000007BC0000079C0000060
:1070400077C0000075C0000073C0000071C0000070
:1070500084C000006DC000006BC0000069C000006B
:1070600067C0000065C0000063C0000061C0000090
:107070005FC000005DC000005BC0000059C00000A0
:1070800057C0000055C0000053C0000051C00000B0
:107090004FC000004DC000004BC0000049C00000C0
:1070A00047C0000045C0000043C0000011241FBEBF
:1070B000CFEFDAE0DEBFCDBF2F9A529A5A988FE316
:1070C0009CE90197F1F700C0000023B12F98529876
:1070D0005A98E0E0F0E08591949127FF14C0019662
:1070E00091F084B7877F84BF88E10FB6F8948093CE
:1070F0006000109260000FBE10928C0210928B0202
:10710000E0E0F0E0099512E0A0E0B1E0E6EAFDE79A
:1071100002C005900D92A038B107D9F712E0A0E89F
:10712000B2E001C01D92AB38B107E1F771DB39C69F
:1071300067CF25B1982F917090952160922395B9D2
:107140002BB1982F90729095206292239BB998B1A1
:1071500080789F77892B88B908951F920F920FB678
:107160000F9211248F9381E083B980E289B916B818
:107170008F910F900FBE0F901F90189507B600FCCF
:10718000FDCFF999FECF23E0FB0120935700E8954E
:1071900007B600FCFDCF81E180935700E895089584
:1071A00007B600FCFDCFF999FECF25E0FB01209347
:1071B0005700E89507B600FCFDCF81E180935700AA
:1071C000E895089507B600FCFDCFF999FECF21E0C0
:1071D000FB010A0120935700E8951124089521E24C
:1071E000FC01209357008491089529E0FC0120932D
:1071F000570084910895E1E0F0E089E08093570022
:107200008491089507B600FCFDCFF999FECF8095D3
:1072100099E0E1E0F0E0082E90935700E89508959A
:10722000A6C5ADC5EF92FF920F931F93CF93DF9347
:107230008C01EB018FD181112BC0209721F0888127
:107240009981081B190BE12CF12C01151105F9F09E
:107250008091E80085FD13C08091E8008E778093CF
:10726000E800209741F0888199818E0D9F1D9983B8
:10727000888385E00DC06ED1882339F309C0109250
:10728000F100015011098FEFE81AF80ADECF80E013
:10729000DF91CF911F910F91FF90EF900895CF92C2
:1072A000DF92EF92FF920F931F93CF93DF937C01B6
:1072B0008B01EA014FD1811130C0209731F08881D4
:1072C0009981081B190BE80EF91EC12CD12C011550
:1072D000110511F18091E80085FD13C08091E8004F
:1072E0008E778093E800209741F0888199818C0DFA
:1072F0009D1D9983888385E010C02CD1882339F3A4
:107300000CC0F70181917F018093F10001501109B8
:10731000FFEFCF1ADF0ADBCF80E0DF91CF911F9123
:107320000F91FF90EF90DF90CF900895CF92DF9272
:10733000EF92FF920F931F93CF93DF937C018B010A
:10734000EA0108D1811130C0209731F088819981FC
:10735000081B190BE80EF91EC12CD12C01151105C3
:1073600011F18091E80085FD13C08091E8008B77D2
:107370008093E800209741F0888199818C0D9D1DB4
:107380009983888385E010C0E5D0882339F30CC049
:107390008091F100F70181937F0101501109FFEF06
:1073A000CF1ADF0ADBCF80E0DF91CF911F910F91E1
:1073B000FF90EF90DF90CF90089520918902309157
:1073C0008A022617370748F06115710539F42091B4
:1073D000E8002E772093E80001C0B901FC0120E00D
:1073E00061157105A1F18EB38823F1F18530F1F1BA
:1073F0008091E80083FD3CC08091E80082FF06C0D8
:107400008091E80082FF26C080E008958091E80026
:1074100080FFE6CF2091F3008091F20090E0922B64
:107420006115710551F08830910538F42191209350
:10743000F100615071090196F3CF21E0089709F03E
:1074400020E08091E8008E778093E800C9CF211179
:10745000CACFD6CF8EB3882339F0853039F08091EA
:10746000E80083FFCDCF04C082E0089583E0089553
:1074700081E008958F708093E900EBEEF0E0808169
:1074800081608083EDEEF0E010826093EC00408339
:107490008091EE00881F8827881F08950F931F93FF
:1074A000CF93DF93062FEC0110E0101771F1988154
:1074B000992341F12C81E981FA817B81892F8F7099
:1074C000873010F080E022C0223010F056E001C07A
:1074D00052E028E030E040E02E173F0720F44F5FF5
:1074E000220F331FF9CF4295407F452B692F661F2E
:1074F0006627661F90E4799F90011124622BBADF02
:10750000882301F31F5F2596D0CF81E0DF91CF91D3
:107510001F910F9108958091830287FD05C080918E
:10752000E80080FF0DC010C08091E80082FD04C01B
:107530008EB38111F9CF08958091E8008B7707C051
:107540008EB38111ECCF08958091E8008E778093FF
:10755000E80008958091E4009091E50045E62091CF
:10756000EC0020FF20C02091E80020FD20C02EB3B9
:10757000222389F0253089F02091EB0025FD0FC0F2
:107580002091E4003091E5002817390741F341507C
:1075900041F0C901E4CF82E0089583E0089581E0DD
:1075A000089584E008952091E80022FFE0CF80E074
:1075B00008950F931F93CF93DF9346D04DD0C8ED1E
:1075C000D0E088818F7788838881806888838881EC
:1075D0008F7D888319BC1EBA1092810200EE10E0E4
:1075E000F80180818B7F808388818160888342E07D
:1075F00060E080E03FDFE1EEF0E080818E7F80831D
:10760000E2EEF0E080818160808380818860808309
:10761000F80180818E7F8083888180618883DF91FB
:10762000CF911F910F910895E8EDF0E080818F7E5A
:107630008083E7EDF0E080818160808384E082BF19
:1076400081E080938202B5CFE8EDF0E080818E7F0B
:1076500080831092E20008951092DA001092E10007
:1076600008951F920F920FB60F9211242F933F93FC
:107670004F935F936F937F938F939F93AF93BF933A
:10768000EF93FF938091DA0080FF1BC08091D800B8
:1076900080FF17C08091DA008E7F8093DA0080919E
:1076A000D90080FF0BC080E189BD82E189BD09B4AA
:1076B00000FEFDCF81E08EBB0ED903C019BC1EBAFF
:1076C0000CD98091E10080FF17C08091E20080FF1B
:1076D00013C08091E2008E7F8093E2008091E200EF
:1076E00080618093E2008091D80080628093D8000E
:1076F00019BC85E08EBBACD18091E10084FF2EC027
:107700008091E20084FF2AC080E189BD82E189BDC9
:1077100009B400FEFDCF8091D8008F7D8093D80002
:107720008091E1008F7E8093E1008091E2008F7E66
:107730008093E2008091E20081608093E20080917A
:107740008102882311F084E007C08091E30087FF65
:1077500002C083E001C081E08EBB7AD18091E1005C
:1077600083FF26C08091E20083FF22C08091E10068
:10777000877F8093E10082E08EBB1092810280912E
:10778000E1008E7F8093E1008091E2008E7F809304
:10779000E2008091E20080618093E20042E060E0DC
:1077A00080E068DE8091F00088608093F00050D126
:1077B000FF91EF91BF91AF919F918F917F916F91C9
:1077C0005F914F913F912F910F900FBE0F901F909F
:1077D00018951F920F920FB60F9211242F933F937B
:1077E0004F935F936F937F938F939F93AF93BF93C9
:1077F000CF93EF93FF93C091E900CF708091EC009D
:107800001092E9008091F000877F8093F0007894D7
:107810001BD01092E9008091F00088608093F00006
:10782000C093E900FF91EF91CF91BF91AF919F91EC
:107830008F917F916F915F914F913F912F910F9019
:107840000FBE0F901F9018951F93CF93DF9300D01A
:10785000CDB7DEB7E3E8F2E08091F100819382E0FA
:10786000EB38F807C9F745D88091E80083FFDCC002
:107870009091830280918402853009F465C030F4D0
:10788000813059F168F0833041F1CEC0883009F47D
:107890009DC0893009F4ACC0863009F0C5C075C000
:1078A000903881F0923809F0BFC0809187028F70C4
:1078B0008093E9009091EB0095FB992790F9109245
:1078C000E90001C090E08091E800877F8093E800A4
:1078D0009093F1001092F10084C0292F2D7F09F0C0
:1078E000A3C0923009F0A0C090918502911126C0EA
:1078F000209187022F7009F497C02093E90090919E
:10790000EB0090FF1BC0833021F48091EB0080627C
:1079100013C08091EB0080618093EB0081E090E0E8
:10792000022E01C0880F0A94EAF78093EA001092B1
:10793000EA008091EB0088608093EB001092E900F0
:107940008091E800877F50C091116EC01091850230
:107950001F778091E3008078812B8093E3008091F2
:10796000E800877F8093E800D6DD8091E80080FF03
:10797000FCCF8091E30080688093E300112311F035
:1079800083E001C082E08EBB4FC09058923008F077
:107990004BC0AE014F5F5F4F6091870280918502BF
:1079A000909186020E948D34009709F43DC0209189
:1079B000E800277F2093E800BC0189819A81FDDCE3
:1079C0008091E8008B778093E8002EC0903861F5B5
:1079D0008091E800877F8093E80080918102809306
:1079E000F1008091E8008E778093E80094DD1CC060
:1079F00091111AC0909185029230B0F48091E80004
:107A0000877F8093E8009093810285DD80918102D9
:107A1000811104C08091E30087FF02C084E001C0AF
:107A200081E08EBB0E946F348091E80083FF0AC022
:107A30008091E800877F8093E8008091EB0080626E
:107A40008093EB000F900F90DF91CF911F910895DD
:107A50000895CF938EB38823A9F08091E9008F70A9
:107A60009091EC0090FF02C090E801C090E0C92F17
:107A7000C82B1092E9008091E80083FDE5DECF700D
:107A8000C093E900CF910895CF93DF93EC018091EB
:107A9000E80083FF35C0888190E020918702309113
:107AA00088022817390761F5809184028E3F79F0AA
:107AB0008F3F31F580918302813211F58091E8008A
:107AC000877F8093E80027DD81E088AF19C080912F
:107AD0008302813AA9F48091E800877F8093E800CF
:107AE0008091E80080FFFCCF8B8581508093F1006E
:107AF0008091E8008E778093E800DF91CF910BCDE5
:107B0000DF91CF910895CF93DF93EC01FC013C9678
:107B10008DE2DF011D928A95E9F782E08C838987E7
:107B200061E0CE010196BADC882331F061E0CE013C
:107B30000696DF91CF91B2CC80E0DF91CF9108958E
:107B4000EF92FF920F931F93CF93DF9300D0CDB7A7
:107B5000DEB78C018EB3843009F000C1F801868154
:107B60008F708093E9008091E80082FFBDC086811C
:107B70008F708093E9001A8219827801FCE0EF0E81
:107B8000F11CAE014F5F5F4F6FE070E0C701CEDBCD
:107B9000F801853021F480AD882399F3A5C0848550
:107BA0009585A685B78585359345A244B34461F490
:107BB000F801918D8385981738F4808D8F7121F4A9
:107BC000828D8150803180F08091EB0080628093C3
:107BD000EB00F80181818F708093E9008091EB00C8
:107BE00080628093EB0080C01A8219827801FBE1E9
:107BF000EF0EF11CF801628D70E0AE014F5F5F4F38
:107C0000C70194DB853029F4F80180AD882391F316
:107C10006BC08091E8008B778093E800F801808D3D
:107C200087FF04C081818F708093E900C8010E94A2
:107C30007D3491E09827F80197AB45E553E562E480
:107C400073E543A754A765A776A740895189628940
:107C5000738947A750AB61AB72AB4489558966897C
:107C6000778943AB54AB65AB76AB811109C0452B2B
:107C7000462B472B29F08091EB0080628093EB002C
:107C8000F80186818F708093E9008091EB00F80104
:107C900085FF04C080AD8823C1F326C081818F7029
:107CA0008093E9008091EB0085FF05C0F80180AD6D
:107CB0008823C1F319C01A8219827801FBE2EF0E02
:107CC000F11CAE014F5F5F4F6DE070E0C701E7DA76
:107CD000853029F4F80180AD882399F305C080919F
:107CE000E8008E778093E800F80180AD8823B1F139
:107CF00026812F7081E090E0AC0102C0440F551F37
:107D00002A95E2F74093EA001092EA0021812F7051
:107D1000022E01C0880F0A94EAF78093EA001092BD
:107D2000EA0086818F708093E9008091EB0080618A
:107D30008093EB008091EB0088608093EB00818161
:107D40008F708093E9008091EB0080618093EB005D
:107D50008091EB0088608093EB0010AE0F900F9045
:107D6000DF91CF911F910F91FF90EF900895F999B6
:107D7000FECF92BD81BDF89A992780B50895262F30
:107D8000F999FECF92BD81BDF89A019700B4021611
:107D900039F01FBA20BD0FB6F894FA9AF99A0FBEBF
:067DA0000895F894FFCFE6
:107DA60001008340000001044000000101000000C2
:107DB60000000000000000000000000000000000BD
:107DC60000000000000000000000000000000000AD
:107DD600000000000000000000007000000000002D
:107DE600000A000000000000000000004C5546415B
:107DF60020424F4F542020080000000000000000E1
:107E06000000000000000000000000004146004C99
:107E1600004100530048000F00262E004200490092
:107E26004E0000000000000000000000464C4153D8
:107E36004820202042494E000000000000000000BB
:107E4600000020084E12020000680000414500456F
:107E560000500052004F000F00144D002E0042004B
:107E660049004E0000000000000000004545505249
:107E76004F4D202042494E00000000000000000047
:107E8600000020084E120F00FF0300000902200028
:107E960001010080320904000002080650000705AF
:107EA6008302400005070504024000051201100187
:107EB60000000008EB0345200100000000010080DF
:107EC60000021F0000004C55464100000000426FB2
:107ED6006F746C6F61646572000000000000302EE4
:107EE6003030EB3C906D6B646F7366730000020478
:107EF60001000210005600F8010016000100000003
:107F0600000000000000000029785634124C554647
:107F16004120424F4F5420204641543132202020E8
:107FA000EDC8FEC80FC91BC920C925C92BC9089532
:087FB000089508950895089555
:107FE000DFCFDFCFDFCFDFCFDFCFDFCFDFCFDFCF21
:087FF000DFCFDFCFDFCFDFCFD1
:087FF8000070000030DFFBDC2B
:040000030000700089
:00000001FF
